{
  "_format": "hh-sol-artifact-1",
  "contractName": "Marketplace",
  "sourceName": "backend/contracts/Marketplace.sol",
  "abi": [
    {
      "inputs": [
        {
          "internalType": "uint256",
          "name": "_feePercent",
          "type": "uint256"
        }
      ],
      "stateMutability": "nonpayable",
      "type": "constructor"
    },
    {
      "anonymous": false,
      "inputs": [
        {
          "indexed": false,
          "internalType": "uint256",
          "name": "itemId",
          "type": "uint256"
        },
        {
          "indexed": true,
          "internalType": "address",
          "name": "nft",
          "type": "address"
        },
        {
          "indexed": false,
          "internalType": "uint256",
          "name": "tokenId",
          "type": "uint256"
        },
        {
          "indexed": false,
          "internalType": "uint256",
          "name": "price",
          "type": "uint256"
        },
        {
          "indexed": true,
          "internalType": "address",
          "name": "seller",
          "type": "address"
        }
      ],
      "name": "Offered",
      "type": "event"
    },
    {
      "inputs": [],
      "name": "feeAccount",
      "outputs": [
        {
          "internalType": "address payable",
          "name": "",
          "type": "address"
        }
      ],
      "stateMutability": "view",
      "type": "function"
    },
    {
      "inputs": [],
      "name": "feePercent",
      "outputs": [
        {
          "internalType": "uint256",
          "name": "",
          "type": "uint256"
        }
      ],
      "stateMutability": "view",
      "type": "function"
    },
    {
      "inputs": [],
      "name": "itemCount",
      "outputs": [
        {
          "internalType": "uint256",
          "name": "",
          "type": "uint256"
        }
      ],
      "stateMutability": "view",
      "type": "function"
    },
    {
      "inputs": [
        {
          "internalType": "uint256",
          "name": "",
          "type": "uint256"
        }
      ],
      "name": "items",
      "outputs": [
        {
          "internalType": "uint256",
          "name": "itemId",
          "type": "uint256"
        },
        {
          "internalType": "contract IERC721",
          "name": "nft",
          "type": "address"
        },
        {
          "internalType": "uint256",
          "name": "tokenId",
          "type": "uint256"
        },
        {
          "internalType": "uint256",
          "name": "price",
          "type": "uint256"
        },
        {
          "internalType": "address payable",
          "name": "seller",
          "type": "address"
        },
        {
          "internalType": "bool",
          "name": "sold",
          "type": "bool"
        }
      ],
      "stateMutability": "view",
      "type": "function"
    },
    {
      "inputs": [
        {
          "internalType": "contract IERC721",
          "name": "_nft",
          "type": "address"
        },
        {
          "internalType": "uint256",
          "name": "_tokenId",
          "type": "uint256"
        },
        {
          "internalType": "uint256",
          "name": "_price",
          "type": "uint256"
        }
      ],
      "name": "makeItem",
      "outputs": [],
      "stateMutability": "nonpayable",
      "type": "function"
    }
  ],
  "bytecode": "0x60c060405234801561001057600080fd5b5060405161095b38038061095b83398181016040528101906100329190610094565b60016000819055503373ffffffffffffffffffffffffffffffffffffffff1660808173ffffffffffffffffffffffffffffffffffffffff1660601b815250508060a08181525050506100de565b60008151905061008e816100c7565b92915050565b6000602082840312156100a657600080fd5b60006100b48482850161007f565b91505092915050565b6000819050919050565b6100d0816100bd565b81146100db57600080fd5b50565b60805160601c60a05161085561010660003960006101330152600061010901526108556000f3fe608060405234801561001057600080fd5b50600436106100575760003560e01c806365e17c9d1461005c5780636bfb0d011461007a5780637fd6f15c14610098578063bfb231d2146100b6578063fa00afc7146100eb575b600080fd5b610064610107565b6040516100719190610578565b60405180910390f35b61008261012b565b60405161008f919061060a565b60405180910390f35b6100a0610131565b6040516100ad919061060a565b60405180910390f35b6100d060048036038101906100cb91906104be565b610155565b6040516100e296959493929190610625565b60405180910390f35b6101056004803603810190610100919061046f565b6101de565b005b7f000000000000000000000000000000000000000000000000000000000000000081565b60015481565b7f000000000000000000000000000000000000000000000000000000000000000081565b60026020528060005260406000206000915090508060000154908060010160009054906101000a900473ffffffffffffffffffffffffffffffffffffffff16908060020154908060030154908060040160009054906101000a900473ffffffffffffffffffffffffffffffffffffffff16908060040160149054906101000a900460ff16905086565b60026000541415610224576040517f08c379a000000000000000000000000000000000000000000000000000000000815260040161021b906105ea565b60405180910390fd5b60026000819055506000811161026f576040517f08c379a0000000000000000000000000000000000000000000000000000000008152600401610266906105ca565b60405180910390fd5b6001600081548092919061028290610727565b91905055508273ffffffffffffffffffffffffffffffffffffffff166323b872dd3330856040518463ffffffff1660e01b81526004016102c493929190610593565b600060405180830381600087803b1580156102de57600080fd5b505af11580156102f2573d6000803e3d6000fd5b505050506040518060c0016040528060015481526020018473ffffffffffffffffffffffffffffffffffffffff1681526020018381526020018281526020013373ffffffffffffffffffffffffffffffffffffffff168152602001600015158152506002600060015481526020019081526020016000206000820151816000015560208201518160010160006101000a81548173ffffffffffffffffffffffffffffffffffffffff021916908373ffffffffffffffffffffffffffffffffffffffff160217905550604082015181600201556060820151816003015560808201518160040160006101000a81548173ffffffffffffffffffffffffffffffffffffffff021916908373ffffffffffffffffffffffffffffffffffffffff16021790555060a08201518160040160146101000a81548160ff0219169083151502179055509050506001600081905550505050565b600081359050610454816107f1565b92915050565b60008135905061046981610808565b92915050565b60008060006060848603121561048457600080fd5b600061049286828701610445565b93505060206104a38682870161045a565b92505060406104b48682870161045a565b9150509250925092565b6000602082840312156104d057600080fd5b60006104de8482850161045a565b91505092915050565b6104f0816106a9565b82525050565b6104ff81610697565b82525050565b61050e816106bb565b82525050565b61051d81610703565b82525050565b6000610530601f83610686565b915061053b8261079f565b602082019050919050565b6000610553601f83610686565b915061055e826107c8565b602082019050919050565b610572816106f9565b82525050565b600060208201905061058d60008301846104e7565b92915050565b60006060820190506105a860008301866104f6565b6105b560208301856104f6565b6105c26040830184610569565b949350505050565b600060208201905081810360008301526105e381610523565b9050919050565b6000602082019050818103600083015261060381610546565b9050919050565b600060208201905061061f6000830184610569565b92915050565b600060c08201905061063a6000830189610569565b6106476020830188610514565b6106546040830187610569565b6106616060830186610569565b61066e60808301856104e7565b61067b60a0830184610505565b979650505050505050565b600082825260208201905092915050565b60006106a2826106d9565b9050919050565b60006106b4826106d9565b9050919050565b60008115159050919050565b60006106d282610697565b9050919050565b600073ffffffffffffffffffffffffffffffffffffffff82169050919050565b6000819050919050565b600061070e82610715565b9050919050565b6000610720826106d9565b9050919050565b6000610732826106f9565b91507fffffffffffffffffffffffffffffffffffffffffffffffffffffffffffffffff82141561076557610764610770565b5b600182019050919050565b7f4e487b7100000000000000000000000000000000000000000000000000000000600052601160045260246000fd5b7f5072696365206d7573742062652067726561746572207468616e207a65726f00600082015250565b7f5265656e7472616e637947756172643a207265656e7472616e742063616c6c00600082015250565b6107fa816106c7565b811461080557600080fd5b50565b610811816106f9565b811461081c57600080fd5b5056fea2646970667358221220a80e9bf840d337f5bf40eb7dc92535e5415cbfbdf8f1794aa28a8bee86829cba64736f6c63430008040033",
  "linkReferences": {},
  "deployedLinkReferences": {}
}